{
  "address": "0xf35dA338E1d6d455B79648c748161C035d84Da90",
  "abi": [
    {
      "inputs": [],
      "name": "quotes",
      "outputs": [
        {
          "internalType": "string",
          "name": "",
          "type": "string"
        }
      ],
      "stateMutability": "pure",
      "type": "function"
    }
  ],
  "transactionHash": "0x6d311f7766fae8b61c3c32ccf763c91757e2594287841fb0b8b7db444c05c759",
  "args": [],
  "numDeployments": 1,
  "solcInputHash": "665a893c49e773d00f7b84031d500d40",
  "bytecode": "0x608060405234801561001057600080fd5b506101d7806100206000396000f3fe608060405234801561001057600080fd5b506004361061002b5760003560e01c8063d6a5d7db14610030575b600080fd5b61003861004e565b60405161004591906100fe565b60405180910390f35b60606040518060c001604052806081815260200161012160819139905090565b600081519050919050565b600082825260208201905092915050565b60005b838110156100a857808201518184015260208101905061008d565b60008484015250505050565b6000601f19601f8301169050919050565b60006100d08261006e565b6100da8185610079565b93506100ea81856020860161008a565b6100f3816100b4565b840191505092915050565b6000602082019050818103600083015261011881846100c5565b90509291505056fe53696e67206c696b65206e6f206f6e652773206c697374656e696e672c206c6f7665206c696b6520796f75277665206e65766572206265656e20687572742c2064616e6365206c696b65206e6f626f64792773207761746368696e672c20616e64206c697665206c696b6520697427732068656176656e206f6e2065617274682ea264697066735822122057868eed051eb8bfd9816adda9267ce1fac7aa4cbf57d95fa85e61a41b5d5e6164736f6c63430008110033",
  "devdoc": {
    "kind": "dev",
    "methods": {},
    "version": 1
  },
  "userdoc": {
    "kind": "user",
    "methods": {},
    "version": 1
  },
  "storageLayout": {
    "storage": [],
    "types": null
  }
}